S0180000416C74696E56696E6179616B4C6162372E73726563FB
S11300000C9434000C9446000C9446000C94460066
S11300100C9446000C9446000C9446000C94460044
S11300200C9446000C9446000C9446000C94460034
S11300300C9446000C9446000C9446000C94460024
S11300400C9446000C9446000C9446000C94460014
S11300500C9446000C9458000C9446000C944600F2
S11300600C9446000C94460011241FBECFEFD8E038
S1130070DEBFCDBF21E0A0E0B1E001C01D92A230FF
S1130080B207E1F70E9448000C9470000C94000041
S11300908FEF8AB98BB9789418B8ECE7F0E08081D7
S11300A0806E8083EAE7F0E080818F6E8083FFCFEB
S11300B01F920F920FB60F9211248F939F938091EA
S11300C0780090E090930101809300018091790081
S11300D08BB99F918F910F900FBE0F901F90189521
S10700E0F894FFCFBE
S9030000FC
