S01B0000416C74696E5F56696E6179616B5F4C616220332E737265631E
S11300000C9434000C946B000C943E000C943E0051
S11300100C943E000C943E000C943E000C943E0064
S11300200C943E000C943E000C943E000C943E0054
S11300300C943E000C943E000C943E000C943E0044
S11300400C943E000C943E000C943E000C943E0034
S11300500C943E000C943E000C943E000C943E0024
S11300600C943E000C943E0011241FBECFEFD8E048
S1130070DEBFCDBF0E9440000C94BA000C94000077
S11300801AB88FEF84B9789481E08DBB83E08093B4
S1130090690081E085B92FE78AE196E0215080402C
S11300A09040E1F700C0000082E085B92FE78AE1C3
S11300B096E0215080409040E1F700C0000084E0C9
S11300C085B92FE78AE196E0215080409040E1F71E
S11300D000C00000DECF1F920F920FB60F921124C2
S11300E02F933F938F939F9315B82FEF34E38CE0B6
S11300F0215030408040E1F700C000008FEF85B907
S11301009FEF24E33CE0915020403040E1F700C0F1
S1130110000015B89FEF24E33CE0915020403040AC
S1130120E1F700C0000085B99FEF24E33CE0915063
S113013020403040E1F700C0000015B89FEF24E3F1
S11301403CE0915020403040E1F700C0000085B908
S11301508FEF94E32CE0815090402040E1F700C001
S113016000009F918F913F912F910F900FBE0F90A0
S10B01701F901895F894FFCFCD
S9030000FC
