S01A0000416C74696E5F56696E6179616B5F4C6162352E737265633D
S11300000C9434000C943E000C943E000C943E007E
S11300100C943E000C943E000C943E000C943E0064
S11300200C943E000C943E000C943E000C945D0035
S11300300C943E000C943E000C943E000C943E0044
S11300400C943E000C943E000C943E000C943E0034
S11300500C943E000C943E000C943E000C943E0024
S11300600C943E000C943E0011241FBECFEFD8E048
S1130070DEBFCDBF0E944A000C9489000C9400009E
S113008080E48093800089E08093810084B1826061
S113009084B908950E9440008FEF9FEF90938900E8
S11300A080938800EFE6F0E080818260808378941A
S11300B08FEF8AB91BB885B9FFCF1F920F920FB685
S11300C00F9211242F938F939F9380918800909186
S11300D08900019639F48FEF9FEF90938900809304
S11300E088000CC08091880090918900019631F4B9
S11300F08FEF9FEF90938900809388008BB1809558
S11301008BB99F918F912F910F900FBE0F901F90DD
S10901101895F894FFCFDE
S9030000FC
