S018000056696E6179616B416C74696E4C6162382E73726563FA
S11300000C9434000C943E000C943E000C943E007E
S11300100C943E000C943E000C943E000C943E0064
S11300200C943E000C943E000C943E000C943E0054
S11300300C943E000C943E000C943E000C943E0044
S11300400C943E000C943E000C943E000C943E0034
S11300500C943E000C943E000C943E000C943E0024
S11300600C943E000C943E0011241FBECFEFD8E048
S1130070DEBFCDBF0E9440000C9476000C940000BB
S1130080ECE7F0E08081806E8083EAE7F0E0808135
S1130090856C80838FEF8AB984B1866084B9EFE67A
S11300A0F0E0808182608083E0E8F0E08081826A11
S11300B08083E1E8F0E08081896080837894809196
S11300C07800E9E7F0E0808190E0909389008093E4
S11300D08800808190E090938B0080938A008FE366
S11300E09CE90197F1F700C00000EBCFF894FFCF33
S9030000FC
