S01800004763634170706C69636174696F6E31332E7372656327
S11300000C9434000C943E000C943E000C943E007E
S11300100C943E000C943E000C943E000C943E0064
S11300200C943E000C943E000C943E000C943E0054
S11300300C943E000C943E000C943E000C943E0044
S11300400C943E000C943E000C943E000C943E0034
S11300500C943E000C943E000C943E000C943E0024
S11300600C943E000C943E0011241FBECFEFD8E048
S1130070DEBFCDBF0E9440000C947A000C940000B7
S113008084B1826084B9EFE6F0E08081826080838D
S1130090E0E8F0E0808182688083E1E8F0E080813C
S11300A0896080838FEF93E090938700809386002C
S11300B08FE090E09093890080938800E8E8F0E076
S11300C0808191810F96918380832FEF81EE94E05C
S11300D0215080409040E1F700C000008081918170
S11300E08F3F934059F78FE090E09093890080937D
S10B00F08800E4CFF894FFCF6F
S9030000FC
